S02B00002F70726F6A5F73772F757365725F6465762F6A6E69652F627564616261636B656E642F6275696C646E
S214009040B797000003A70702B7F70000130101F661
S21400905023AAE742B7070100232C8108232A910898
S2140090602322510923206109232E7107232E11087C
S214009070232821092326310923244109232C81078B
S214009080232A91072328A1072326B1079387074C95
S21400909023A007C2B7FA000023A807C223A80A42E3
S2140090A0B706B2FF03A7C60237F60000130646400F
S2140090B03705B3FF9357670093F7F7031377F70364
S2140090C0131747009397A700B3E7E7002320F6009F
S2140090D023A2F600138706402322F7000327C502C3
S2140090E037F40000B7F4000037FB00009357670022
S2140090F093F7F7031377F703131747009397A70021
S214009100B3E7E7002322F6002322F5001307054005
S2140091102322F70003A6C602B7FB000093860610BC
S214009120B7F80000135766001378F6039357C60087
S214009130135636019375F70393F7F7071376F6077A
S214009140230BFB40A38BCB40230604432384B4426B
S21400915003A7060037F600001357E700137717003B
S2140091602386E84003A786039306C4429377F70353
S21400917013576700230AF6401377F703B7F7000084
S2140091802388E7400327C502938707411306464115
S2140091901373F70313576700A38066001377F7036C
S2140091A093868442A380E6001307051083260700F3
S2140091B093D6E60093F616002386D8400327870347
S2140091C09376F703135767001377F703A380E70038
S2140091D0A300D6009307400063EE070D9317180010
S2140091E09387F7FF3337B00013173700B387E700CE
S2140091F0371700001307072093972700B307F700D9
S21400920003A707009307100063DCE700B707BAFF61
S214009210B706003023A0D7009306600023A2D7002D
S214009220B7270000B746B9FF9387078023ACF60838
S214009230B7060010B707B2FF23A6D710B746B9FF88
S21400924083A7860993F71700E39C07FE9307100091
S21400925063D2E70CB717000003A787046314070060
S21400926013071000B797000093878708B3D7E70265
S21400927093F7F70F1307B001B387E702130540060D
S2140092803726B1FF638007048326061F0327861F41
S2140092903388D700B335F800B385E5006366B700BA
S2140092A06392E50263F006038326061F0327861FE4
S2140092B06FF0DFFE93079000B38707419397170080
S2140092C06FF05FF21305F5FFE31E05FAB709BBFF63
S2140092D01389C93F130C0030130A6000232089014C
S2140092E08327090083A749009397070193D70701AF
S2140092F063864701EF00C0636FF05FFEB70700307C
S2140093003707BAFF938717002320F70093077000EC
S2140093102322F7008349C4421306000313F91900F9
S21400932037F40000930500001305C102230524430B
S2140093309780BFFFE780C0249307F0FF370702003F
S214009340232EF1048347C7089386E9FE13073000EF
S21400935003C68442B337F0002320F1009387090048
S2140093606366D73E9387F9FE130700016300E64065
S214009370130710016300E6401307E6FE930640005D
S21400938063EEE63C1306F6FE930506006308090046
S21400939003C77B411307F7FF3306C7401316A60023
S2140093A0631E093C930640001307000063D4F600D2
S2140093B0130750009306A000B385D5021317470085
S2140093C0B385F500B72700003366C700938707020A
S2140093D037F7700013070710B385F502B305B7001B
S2140093E0B7F9000033B7E5003306C7009387094492
S2140093F023ACC706B7F4000023AEB706938609442D
S214009400938D094493072000130780001305090075
S2140094109389094423A0B44223A2C4429770BFFF95
S214009420E780C0380345A442930520009770BFFF2D
S214009430E78040BD930C0500E30605FE83A7090000
S21400944037F90000232EF94083A7490037FC0000B7
S214009450232CFC40B7D7A0AC9387E7AF2324F100BA
S214009460B71700009387F7FF2322F100B7E7C21B68
S2140094709387D7EA2326F10093870904370D001057
S2140094802328F1008327C94183268C411307000057
S214009490639AD70637970000832647000326810085
S2140094A0639EC62E83A70A4393B7170013870C0044
S2140094B0638A070483A5044203A6444213FAF5010F
S2140094C0330ABA010345A44293072000130780001D
S2140094D093060A009770BFFFE780402D0345A4421D
S2140094E0930520009770BFFFE780C0B1E30805FE34
S2140094F083274A000327C941232CFC403307F74043
S2140095001337170083A70A43832641009387170063
S214009510B3F7D70023A8FA426310072A8347C94146
S21400952083A504429387170093975700B385B70027
S21400953003A5444233B6F50093F6F501B389B601A8
S2140095403306A6000345A442930720001307000233
S214009550938609009770BFFFE78040250345A44225
S214009560930520009770BFFFE780C0A9E30805FEBB
S21400957083A5090003A8490083A7490003A649005C
S21400958003AA490093D7070193F8F7031356660119
S214009590135ACA01930750001376F60313051000FA
S2140095A06318FA0003A549009307FDFF3375F5001D
S2140095B08347A442638C071E03C77B4183476B41E6
S2140095C01307F7FF9387F7FF3306C740B3871741A4
S2140095D01316A600939847008327C10513070000BB
S2140095E063C007021307000063CA07001307C00022
S2140095F03387E7029306C1023387E6000327070096
S2140096002324E102130710006312EA1C13071D103F
S214009610B707B2FF23A6E7109317080193D70701F1
S21400962033E6C700032501009306000033661601E3
S214009630EF205075B7070200238707080327C941A4
S21400964023A80A42930717009306F01F63F4F60058
S214009650930717E00327C105232EF9406356070634
S21400966083A60442832501013797000013F6F6010E
S2140096702320F7003306B60003A744422320F60053
S2140096800345A44293053000232EE100232CD1008D
S214009690232AC1009770BFFFE78000990326410187
S2140096A0832681010327C101E30C05FC0345A44280
S2140096B0930800001308100093074000930530003D
S2140096C09770BFFFE780402937070010B707B2FF43
S2140096D01307670023A6E7109307F000E314FADAEF
S2140096E00345A442930500009770BFFFE780809172
S2140096F0E30805FEB707020013071000A387E70874
S214009700B70700208320C109032481093707B2FF69
S214009710938717FF2326F71083244109032901099D
S2140097208329C108032A8108832A4108032B0108DC
S214009730832BC107032C8107832C4107032D0107C8
S214009740832DC1061301010A67800000130750012C
S214009750E35C37C1938709FF6FF01FC113076001F1
S214009760E354C7C2130606FF6FF01FC213060000BD
S2140097706FF09FC1130660006FF01FC103476B4177
S214009780130540001307F7FF930600006354F50027
S214009790930650003307D7406FF0DFC1032747001A
S2140097A0B387E740B337F0006FF05FD01316A6001C
S2140097B0939848006FF05FE20327C100B707B2FF37
S2140097C023A6E710EF00C0166FF0DFCB930630003D
S2140097D06312DA0213071D10B707B2FF23A6E710BD
S2140097E0A30301029305810213057102EF204010C6
S2140097F06FF0DFE493064000631EDA00B70700113F
S214009800B706B2FF9387171023A6F610A303E1024C
S2140098106FF05FFD130750006312EA048326C94108
S2140098201306F01F138716006374E600138716E00E
S214009830938717009306C000232EF104B387D70240
S21400984093060106B387F6001305F5FF23A607FC6B
S21400985023A8A7FC23AAE7FC6FF05FDE13076000CF
S214009860E31EEADC1307000063CA07001307C00004
S2140098703387E7029306C1023387E6008326070094
S2140098800326470063F6C6028327870093861600E2
S2140098902320D700232EF9400345A4429305000059
S2140098A09760BFFFE7800076E30805FE6FF09FBD78
S2100098B09387F7FF232EF1046FF05FD8BB
S2140098BCB707B2FF3706020023A6A7101306060842
S2140098CC83258600B7F700001387074C9387074C51
S2140098DC2320B718130700006384E5049306470497
S2140098EC93962600B306D60083A6460083C8E601E8
S2140098FC03A8C60303A5060383C606002380D70069
S21400990CA3810700238117012393070123A4A70033
S21400991CA380E700130717009387C7006FF0DFFBE1
S21400992C678000003706B2FF930506281307062447
S21400993C93071000832607001307470093B61600FC
S21400994CB3F7D700E318B7FEE38207FEB705B3FFFD
S21400995C138505289386070013870524032607001E
S21400996C1307470013361600B3F6C600E318A7FE17
S21400997CE38206FEB7F7000083A74743678007001D
S21400998C130101FD83238103378EEC3F130E0E0962
S21400999C338EC30137130000B71FB2FF931E0501A9
S2140099AC130303C0938F8FC2131E2E00B7F2000052
S2140099BC33836E00232681022322210323203103C6
S2140099CC232E4101232C5101B38FFE01330EDE01F1
S2140099DCB70900C0B70EB2FF13152500938242409C
S2140099EC372A0000B70A0080032901030324410329
S2140099FC232491022328710123268101232491011B
S214009A0C232A61012322A1012320B101938505029B
S214009A1C9393A300930400009389F9FFB70B0040BF
S214009A2C130C00083303D301B382A200130A0A09ED
S214009A3C930C100093CAFAFF63F0C40E03AD080033
S214009A4C13153D00330FA800832E0F00032F4F0075
S214009A5C337B3F0133FFEB01631E0F00032F040023
S214009A6C338FE501338FEE01B33DDF01338B6D0190
S214009A7C930E0F00130D1D001305850023A0A801DF
S214009A8C3305A80003AF0F00E31E0FFE032F0E00D6
S214009A9CE36EECFF6304070203AF02002326F30019
S214009AAC2328E301232E43012320D3012322630121
S214009ABC232C73002320E30223249303032F450057
S214009ACCB387E700635C0F02832E0900337F5F01C8
S214009ADC63FAEE03032B8500032F0500938E1E00FE
S214009AEC2320D901832E0400B38E6E012320D401CB
S214009AFC03A508003305E54123A0A800B384D400D1
S214009B0C6FF09FF3232009002320040003A5080010
S214009B1C130525006FF05FFE0324C1028324810227
S214009B2C0329410283290102032AC101832A8101E8
S214009B3C032B4101832B0101032CC100832C8100D4
S214009B4C032D4100832D01001301010367800000E3
S214009B5CB707B4FF03A7873A83A6C73A130101FCDD
S214009B6C23244103232E1102232C8102232A910243
S214009B7C23282103232631032322510323206103A8
S214009B8C232E7101232C8101232A91012328A10164
S214009B9C2326B1013367D700130A0500630A0700B2
S214009BAC1307F0FF23A4E73A23A6E73A2320050081
S214009BBC83290A009387190093F777002320FA006D
S214009BCC6394092437FB0000B70A1000B70B01009A
S214009BDC370C020093040B4C938A0AB4130B0B4CF1
S214009BECB71C0000938BFBFF130C0C0883270B1879
S214009BFC63FCF92003CD0400B707B2FF370700B0AB
S214009C0C33045D0103D964001314C40023A6E710C3
S214009C1C8327C40893F74700638607048327C40288
S214009C2C1307F00193D7F700639EE702832784029D
S214009C3C93F70701638807020326C401032704076A
S214009C4C832704096310E6023717000093D7C70072
S214009C5C1307F7FFB3F7E7006386070093871C002C
S214009C6C232CF40693770908638807049377090571
S214009C7C13071000638C071013050D009760BFFFC9
S214009C8CE780C03F9760BFFFE780803BB30D550170
S214009C9C13050D009760BFFFE780403E939DCD00F7
S214009CAC9760BFFFE780C03983A70D0133055501C8
S214009CBC1315C5002326F5001377094493070000F7
S214009CCC631E07000326C4080327443A13761600BF
S214009CDC630606009357170193B7170013774900CE
S214009CEC630E070013772902630A07000327440054
S214009CFC3377770113371700B3F7E700638E070A3D
S214009D0C83A78400638E070613874904131727005E
S214009D1C3307EC00032747009387F7FF23A4F400D0
S214009D2C63880708832784029306400093F7F7DFBF
S214009D3C2324F40293071000232EF406032747026D
S214009D4C83C7240023220402939787012328E40266
S214009D5C2328F408B7370000938707202324F4023F
S214009D6C13776902930700006316D7001379090569
S214009D7CB3372001A381F40013C9170023202A014E
S214009D8C938919009384C4006FF05FE68325040260
S214009D9C0326840483278406B307F60063060600AE
S214009DAC232AE404232CE404E392B7FE6FF0DFF0DE
S214009DBC232807026FF0DFFC83C73400E38207FC1E
S214009DCC8327C40893F74700E38C07FA13050D00A6
S214009DDC032444009760BFFFE780402A9760BFFFCC
S214009DECE7800026330555011315C50083270501AA
S214009DFCB38787009397070193D707012328F500AD
S214009E0CA38104006FF0DFF78320C10303248103D2
S214009E1C83244103032901038329C102032A8102F7
S214009E2C832A4102032B0102832BC101032C8101DF
S214009E3C832C4101032D0101832DC1001301010464
S214009E4C67800000B788EC3F93880809B388170131
S214009E5C1318050193982800B3880801130300080B
S214009E6C03AE0800E36EC3FF630E0704B7180000CA
S214009E7C938808C033081801B708B2FF33031801DB
S214009E8C2326D300B7F6000093864640131525000C
S214009E9C3385A600832605009397A7002328D300B6
S214009EACB726000093860609232ED3002320B30082
S214009EBC2322C300232CF3002320E3029307100075
S214009ECC2324F30267800000B718B2FF13180501AD
S214009EDC938888C23308180183280800E39E08FE7E
S214009EEC6FF05FF63783EC3F130303093303680008
S214009EFC931805011313230033031301130E0008E4
S214009F0C832E0300E36EDEFF630E07049397D700E1
S214009F1C13E32709B7170000938707C0B387F80029
S214009F2CB708B2FF338E1701232E6E002320BE0017
S214009F3CB7F5000093182500138545403305150129
S214009F4C832505001318A8002322BE002326CE0066
S214009F5C2328DE00232C0E012320EE02130710000C
S214009F6C2324EE0267800000130101FD23267101F5
S214009F7C938B0700B717B2FF23286101938787C21C
S214009F8C131B050123248102232291022320210383
S214009F9C232E3101232C4101232A510123261102A1
S214009FAC93090500938A05001304060093840600A3
S214009FBC13090700330BFB00130A000063007A0535
S214009FCC83270B00E39E07FE130709001306040005
S214009FDC938604001308100093850A001385090065
S214009FECEFF05FF0B307240133B78700B304970094
S214009FFC13840700130A1A006FF05FFC8320C1025B
S21400A00C0324810283244102032901028329C1010E
S21400A01C032A8101832A4101032B0101832BC100F2
S21400A02C1301010367800000130101F72324810844
S21400A03C2322910823202109232E3107232C4107A4
S21400A04C232A5107B707B2FF2326110823286107D6
S21400A05C2326710723248107232291072320A10797
S21400A06C232EB10523A60710370700A023A6E7105A
S21400A07CB7040200B7F7000003C5A742938704088D
S21400A08C83AA070113041000B7F9000037F9000083
S21400A09C3304A440938989421309C942130A000069
S21400A0AC93844409B30934013309240163884A05AF
S21400A0BC03A7040083A504029384440013860500BA
S21400A0CC938705402320E60013060601E31CF6FEE4
S21400A0DC03C50900834609001315A5009396460090
S21400A0ECB366D5009307F001130700401305040070
S21400A0FC130A1A00EFF05FE76FF05FFB3705B2FF4D
S21400A10C13140401130545243304A4008327040008
S21400A11C2326F100E39C07FEB707B2FF370700B013
S21400A12C23A6E7103707020093070708032707083C
S21400A13C03A7470037040100B7F400001307044CCC
S21400A14C232A07C0232C07C01387044C232207722C
S21400A15C03AAC72883CA6728371700008347E71067
S21400A16C1307072093972700B387E70003A707007A
S21400A17C930710001304044C9384044C63D4E70632
S21400A18C930904C2130904C393D94900135949000F
S21400A19C232044C3130610009305090013850900F9
S21400A1AC9760BFFFE7800024638E0A02930AE000E4
S21400A1BC832704C363F84703832704C3B307FA4013
S21400A1CC63F2FA02130610009305090013850900C2
S21400A1DC232044C39760BFFFE780C020EFF08FF4C6
S21400A1EC6FF01FFDB787B4FF23A6070293860738C8
S21400A1FC1307300023A6E60437070700130707806B
S21400A20C23A2E70223AA07021307100023ACE702D7
S21400A21C1307500023A0E60623A2073E23A4073EFE
S21400A22C23A6073E23A8073E23AA073E23A8070A11
S21400A23C23A0070AB709020037091000373A0000B6
S21400A24CB71A000023AE0702930B00009389090887
S21400A25C130909B4130A0A20938A0A8483A70418DC
S21400A26C63FEFB0A93874B0493972700B387F9008A
S21400A27C83A7470003D5070003A6470203C7E701D9
S21400A28C03ABC70393770B406392070893766B0771
S21400A29C93074000638CF606B70600A1B3072501AA
S21400A2ACB366D500B705B2FF9397C70023A6D510A3
S21400A2BC23A2070223A8C7021317870123A8E708BF
S21400A2CC23A447039760BFFFE78040DBB3775B01AF
S21400A2DC130C0500638807029760BFFFE78040D623
S21400A2EC330B250113050C009760BFFFE78040D5A4
S21400A2FC131BCB00330525011315C50023280B00B3
S21400A30C23260500938B1B006FF05FF533072501A2
S21400A31C1317C700232807086FF0DFFA1306000888
S21400A32C93050000130504C49770BFFFE7808024D4
S21400A33C1306000893050000130504CC9770BFFFA6
S21400A34CE78040231306000893050000130504D489
S21400A35C9770BFFFE78000221306000893050000E5
S21400A36C130504DC9770BFFFE780C020B7F700002A
S21400A37C938747642328F100B7071000938C07B423
S21400A38CB70701009387F7FFB70A0200130B00000C
S21400A39C138A4418138984729309849C138C0400C2
S21400A3AC2326F102938A0A0803A50418637CAB4E95
S21400A3BC03450C0083576C00370700A3B706B2FFA3
S21400A3CC3367E50023A6E61013F74700630207225F
S21400A3DC13F7270263080720370700A43367E50046
S21400A3EC23A6E610330795011317C7001306C708F4
S21400A3FC8326060093F64600E38C06FE93064B0473
S21400A40C93962600B386DA0083A646001388890343
S21400A41C930500009308000103D3C6083386B600E4
S21400A42C0346060913064604131626003386CA008E
S21400A43C03264600035606002300C8006318B30420
S21400A44C1306F0FF2300C80083A5860803D366080E
S21400A45C83DFC605032E87018322C70103278702E5
S21400A46C832844C1131E4E001308D0001377170020
S21400A47C03A6C50183AE050003AF450193854800CE
S21400A48C637EB800938565FF6FF09FFF938515007C
S21400A49C13081800E39415F96FF01FFB371800002B
S21400A4AC1308088433F807013338000123880901A0
S21400A4BC23A8D90423A2090093F607021308000068
S21400A4CC638406001398420093061000A389D900F3
S21400A4DC93D6970093D727001377F70F93F7870039
S21400A4EC93F61600B3E6F600A380E90023A4C90190
S21400A4FC1317170003AE4472B3E7E60023A6090150
S21400A50C2388B902A388B9022390F90323AA090069
S21400A51C23A4090223A6090223896901A38809003A
S21400A52C2391090023AE09002391090223A20902F4
S21400A53C23ACE9012380A90023AA090223A4490518
S21400A54C23A649059306000013080A0013070A0001
S21400A55C9305000093027002930F100063F46606D6
S21400A56C032F46043388C60193054702631458002C
S21400A57C83A58A27034846052307A7002302F7006E
S21400A58CA302F7012320B7022320C700232CD701F0
S21400A59C23280700232A0700232E0700231307006F
S21400A5AC23240700A30707012316E7011308070057
S21400A5BC0326C60513870500938616009305100020
S21400A5CC6FF0DFF93303C3016384050023A26472C2
S21400A5DC9388180023204803232A14C1938949051D
S21400A5EC130A0700130B1B00130CCC006FF0DFDBF9
S21400A5FC13F787006304072013F72702E30407FE0C
S21400A60C370700A63367E50023A6E61013074B04AE
S21400A61C131727003387EA0003274700930607081B
S21400A62C03A686008326C60103A306050328060098
S21400A63C832846018353670883ABCA28835D0704C7
S21400A64C83552704032F4704032E8704232AC101AE
S21400A65C032EC704232CC101032E0705232EC1018C
S21400A66C032E470583228705835FC7052320C10376
S21400A67C035EE705835E07062315C103035E270604
S21400A68C032D87012322A103032D47010346560001
S21400A69C232EE90403274102232AE90013D7670077
S21400A6AC137717002301E90013971B0113571701A3
S21400A6BC2312E900032741012316D9052320E902BA
S21400A6CC032781012328A9012322E9020327C101BC
S21400A6DC231EB9012324E90203270102231FB90014
S21400A6EC2326E9020357A102232859022314E9045E
S21400A6FC130710002312F9052318C90523130904A0
S21400A70C231509042317090423190904A3000900B7
S21400A71C231309002324090023260900232A69048D
S21400A72C232C19012300A900A3010900232C490599
S21400A73C935E080103AE44726364B700130F0800FF
S21400A74C13D7970093D727001377170093F7870034
S21400A75CB367F7001316160033E6C7001376F60F2A
S21400A76C1307000013030A0093070A00930800005F
S21400A77C930270026370770683AF46043303C701F7
S21400A78C938847026314530083A88A27A387B701CC
S21400A79C2387A7002382C700A382070023A01703E2
S21400A7AC23A0D700239307012394B7002395D70142
S21400A7BC23ACE70123A877012396F7011383070040
S21400A7CC83A6C60593870800130717009308100086
S21400A7DC6FF05FFA338EC3016384080023A2C47340
S21400A7EC032784C12320430313071700232CE4C03C
S21400A7FC13090906138A07006FF0DFDE13F717003C
S21400A80CE30207DE330795011317C7001306C708C4
S21400A81C8326060093F64600E38C06FEB70600A7D2
S21400A82CB366D5003706B2FF2326D6108326C7019B
S21400A83C832B0709371600001306F6FF93F7070558
S21400A84C93DBCB00B3FBCB00638607029760BFFF9E
S21400A85CE780C0829750BFFFE780807E3305950166
S21400A86C1315C50083270501B38BFB002328750140
S21400A87C6FF05FD7832747000326C102B705FFFF9B
S21400A88C9396C60033F6C70033067641B3F7B70087
S21400A89CB3E7C7002322F700B3EB7601232C770728
S21400A8AC6FF05FD437080200232004E493070000FF
S21400A8BC13060000930500009386040093084000DE
S21400A8CC1308080813038000631AC5166384050072
S21400A8DC2320F4E437FBD0BAB71AB2FF13091000E2
S21400A8EC130BDB00938A8AC2930B10008329010199
S21400A8FC130A0000370C10A8B70CB2FF83A74472DB
S21400A90C6368FA18130A04EC930904E6138D09001D
S21400A91C930D0A00930C0000370320A8370EB2FFE5
S21400A92C832704E463E2FC24B707B2FF83A7C7249B
S21400A93C1309000063980700B707B3FF03A9C724E1
S21400A94C1339190013078103938E0900130F0A009D
S21400A95C13030000130C1000370D30A8B70DB2FF10
S21400A96C832704E46378F32C83270F0003D6670051
S21400A97C9376C600638A060A834607006396060A21
S21400A98C83C7070003AE0E0093764600835F6E08FF
S21400A99C937C86001305000013760620B3E7A70108
S21400A9AC23A6FD1083278E08232AD1009383FFFF4E
S21400A9BC83A7C701637AF50783D2A70083C6E7038C
S21400A9CC83254101638E0504630C0904639A0624EF
S21400A9DC6312060483D6E70093F61600639C060201
S21400A9EC03D8870083D5070083D64700638AD50231
S21400A9FC63F8D57C930809006366B800B338D800B2
S21400AA0C93C8180063F6B6006364D800636AB8008F
S21400AA1C639808006386022083562E0063825620B5
S21400AA2C639E0C1E130C0000130313001307170071
S21400AA3C130F4F00938E4E006FF09FF203D76600F5
S21400AA4C137E671263061E011377A702631C670248
S21400AA5C130701053307F700230407FE1307460404
S21400AA6C131727003307E800032E4700939527009B
S21400AA7C3307B4002320D7EC9387170093051000F8
S21400AA8C2320C7E7130616009386C6006FF0DFE395
S21400AA9C83C7490013F70701631A070433678A0153
S21400AAAC23A6EC1003C7590083A60900630C070401
S21400AABC13F787006308070403C7E60313071000A1
S21400AACC03D6060083D546002393C9002394C900F9
S21400AADC03D606002395B9002390C602630407002C
S21400AAEC23AE660193E707012382F90093077002F1
S21400AAFC6316FA06B707020083A9872F130A80028B
S21400AB0C6FF0DFDF03C7E6036306070013070000DA
S21400AB1C6FF01FFBE30C09FC13D5170093F78700A7
S21400AB2C137535006386070283A5060303A6460342
S21400AB3C93170501B387570103A70700E31E07FE0B
S21400AB4C9307300013070002EFF0CFAF6FF01FFA39
S21400AB5C83A5860403A6C6046FF09FFD130A1A008D
S21400AB6C938949026FF09FD993078103B3879701A6
S21400AB7C83C70700639C070883A70D0083C70700DD
S21400AB8CB3E767002326FE106302090803270D00AF
S21400AB9C1308000083278708835E670803C54700F1
S21400ABAC03ACC70193180501B38858016370D80726
S21400ABBC8347EC036396070483258C040326CC0496
S21400ABCC83A70800E39E07FE9307300013070002D6
S21400ABDC93060C0023201103232E0101232CD101F4
S21400ABEC232AA100EFF00FA6832801020328C10137
S21400ABFC832E810103254101370EB2FF370320A8AF
S21400AC0C032CCC05130818006FF05FFA938C1C000D
S21400AC1C938D4D00130D4D006FF09FD0E30409E0AB
S21400AC2C631475002300770183A7C7051305150069
S21400AC3C6FF05FD8B7250000832C0101130D0000C0
S21400AC4C930D1000B70840A83703B2FF9385051084
S21400AC5C83A74472636AFD0EE30A0CC8E3880DC82A
S21400AC6CB70A00C037FB0000B7FB00001309000052
S21400AC7C938AFAFF130B8B42938BCB42832704E405
S21400AC8C6362F924B7070100832684C1938787BEC5
S21400AC9C0327C1006390E6483707B2FF83270725D2
S21400ACACE39E07FEB707B3FF03A40725E31E04FEC7
S21400ACBCB707B2FF370700A937090200B70910001B
S21400ACCC373A000023A6E71013090908930A400038
S21400ACDC938909B4130A0A2083A704186370F44AEC
S21400ACEC9307440493972700B307F90003A747007C
S21400ACFC035507008326C70393F76602639257052E
S21400AD0CB307350193F606059397C7006388064488
S21400AD1C03AB47009750BFFFE78040369750BFFF06
S21400AD2CE7800032330535011315C500832705016E
S21400AD3CB38767019397070193D707012328F5007C
S21400AD4C130414006FF05FF903C54C0093770501EC
S21400AD5C63980714B3671D012326F31063080902D2
S21400AD6C03C75C0083A70C00631607029376850066
S21400AD7C6382060203A6870183A6C7016398660151
S21400AD8C83A60C01130E09006308D600930D000071
S21400AD9C6F000011130E000083D6C70003C6FC001C
S21400ADACE366D6FE6304070613771500630C0704E8
S21400ADBC83D6070083DE470003D78C0003A68C01DE
S21400ADCC930F000063FCEB0003D7AC0003D86C00B9
S21400ADDC930F0600131707013366070103AF07042A
S21400ADEC1307000013880600630808029372180005
S21400ADFC638402003307C700135818001316160096
S21400AE0C6FF09FFE83D687006FF0DFFA83D647007D
S21400AE1C83DE07006FF05FFA3307F7016364E70120
S21400AE2C3307E74123ACEC0003D707002393DC0081
S21400AE3C2395DC012394DC0023A80C002390E70266
S21400AE4C630A0E041355150023AE07001375350060
S21400AE5C03A7070303AE470393170501B3875701F0
S21400AE6C83A60700E39E06FE1306C701B336E6006C
S21400AE7C930710001308000013074000B386C601A2
S21400AE8CEFF04F86B72700003703B2FFB70840A88D
S21400AE9C9385071083C74C0093E707012382FC00B9
S21400AEAC93077002631AFD00B707020083AC872F66
S21400AEBC130D80026FF0DFD9130D1D00938C4C021E
S21400AECC6FF01FD983270A0083D6670013F7460056
S21400AEDC630A072203AC090083C7070003258C0806
S21400AEEC370750A8B3E7E7003707B2FF2326F7105B
S21400AEFC8327C501034D4500832D4C01832C8C0103
S21400AF0C03D7E700137717006306070AB3076D012C
S21400AF1C83C60700B3077D0183C70700B728000068
S21400AF2C939747009396A600B3E6F6001307002007
S21400AF3C93D79D009385081013860C0013050D00FF
S21400AF4C2328D100EFF04F8213F7FD1F8326010153
S21400AF5C93F70DE0B72800006300070233869701CD
S21400AF6CB335F600B386D50093071000938508100A
S21400AF7C13050D00EFE05FFF83270C023705B2FFC9
S21400AF8C131D0D0113054524330DAD009397470093
S21400AF9C83A707001397470083260D00E39E06FE43
S21400AFACB38D9D0163F0BC1723A0FC00B38CEC00A2
S21400AFBC6FF05FFF03A787056306070C93F6062062
S21400AFCC6388060283DD07008326050003A60704B4
S21400AFDC9307000063820D0293F51D006384050041
S21400AFECB387D70093DD1D00939616006FF09FFE77
S21400AFFC83DD87006FF05FFD63E4C700B387C7404F
S21400B00C832847000323C70103278700370E004019
S21400B01C138807026388B80F93973D00B307F300B5
S21400B02C83A5070083A7470033F65701B377FE00C6
S21400B03C639A0700B3870501B3B6B7003386C6001C
S21400B04C9385070093860C009307400013050D00AC
S21400B05C232E0101232C6100232A11012328E10051
S21400B06CEFE09FE6032701018328410103238101BA
S21400B07C0328C101B38CEC00938D1D00370E0040E5
S21400B08C6FF05FF983C8E70303A7870403A8C70418
S21400B09C9305070013060800639C080493F6062025
S21400B0AC6388060283D607000326050083A70704D9
S21400B0BC930500006382060213F516006304050070
S21400B0CCB385C50093D61600131616006FF09FFEB8
S21400B0DC83D687006FF05FFD63E4F500B385F5401B
S21400B0EC93850502B305B70033B7E50033060701B1
S21400B0FC9307400013870D0093860C0013050D0074
S21400B10CEFE09FDC13091900130A4A0093894900E3
S21400B11C6FF0DFB603C727006308070203A787058F
S21400B12C0327870123AAE70223ACE70223AEE70234
S21400B13C23A0E7040327C10093870706130717000D
S21400B14C2326E1006FF0DFB423AA070223AC070224
S21400B15C23AE070223A007046FF0DFFD8326470209
S21400B16C0347E70123A2070223A8D7021317870178
S21400B17C23A8E70823A447036FF09FBC930710008F
S21400B18CA306F9008320C108032481088324410800
S21400B19C032901088329C107032A8107832A41074B
S21400B1AC032B0107832BC106032C8106832C410637
S21400B1BC032D0106832DC1051301010967800000CC
S21400B1CCE3FAB68493080000E372D8846FF09F8489
S21400B1DC130101FC232C8102232A9102232821032C
S21400B1EC2326310323244103232251032320610306
S21400B1FC232E7101232E1102232C8101232A910167
S21400B20CB7070200A3860708B7F40000B727222268
S21400B21C1384044C3707B2FF93872722B709100014
S21400B22C371AB2FF2326F71013090000130444182C
S21400B23C9384044C938909B4B74A0000130A8AC253
S21400B24C130B7002B70B020083A744726378F908DD
S21400B25C8347E40083250400B38737019397C70020
S21400B26C03A7870283D7C502639C570583A785046B
S21400B27C0345440083A6C5040348540023960502E0
S21400B28C1386C700B337F60013551500B386D700E0
S21400B29C1375350093071000631608001357270123
S21400B2AC9377770013170501330747010328070028
S21400B2BCE31E08FE130720009385C502EFE09FC22D
S21400B2CC6318690103A48B2F130980026FF0DFF754
S21400B2DC13091900130444026FF01FF7B737333302
S21400B2EC3707B2FF9387373337041000370901004E
S21400B2FCB7B9EEDE2326F710930A0000130404B445
S21400B30C1309F9FF9389D9AA1305C1002326010056
S21400B31CEFE01F8437050200138604009305000037
S21400B32C130A10009308000433F32A01370E004466
S21400B33CB70EB2FF130F10001305050883A70418E9
S21400B34C63F0F50A8356660093F7060163940708C4
S21400B35C93F7860463801709834706009302000060
S21400B36C338787001317C700832FC7080328473A6D
S21400B37C93FF1F0063860F0413581801631208040A
S21400B38C93F60604639E0600938645049396260061
S21400B39CB306D50083A6460083A606036392060270
S21400B3AC8326870B638406002322300183268702BC
S21400B3BC9302100093F6F6DF2324D702232EE7071A
S21400B3CC93970701B3E76700B3E7C701337A5A00D0
S21400B3DC23A6FE10938515001306C6006FF01FF605
S21400B3EC938A1A00EFE00FD4E3000AF2B7090100C3
S21400B3FC9384094C37091000930A00009384849CAC
S21400B40C9389094C130909B4130B100083A749C17F
S21400B41C63F6FA1083CB040083C7040133842B0134
S21400B42C1314C400930CC4086386070683A70C0089
S21400B43C93F747006380070613850B009750BFFFF2
S21400B44CE780C0C39750BFFFE78080BF3305250158
S21400B45C1315C500032C050113850B009750BFFF71
S21400B46CE780C0C19750BFFFE78080BD330525013C
S21400B47C1315C5008327C500131C0C01135C0C01A7
S21400B48C9397070193D70701E312FCFA232E640760
S21400B49C6FF0DFF99306443A03A70C0083A7060067
S21400B4AC13771700E30A07FE93D71701E39607FEF8
S21400B4BC83278402138784039305F00F93F7F7DF33
S21400B4CC2324F402232E6407834707006382B70401
S21400B4DCB38727019397C7001385C7081388473A85
S21400B4EC032605008326080013761600E30A06FEDC
S21400B4FC93D61601E39606FE83A68702130717005B
S21400B50C93F6F6DF23A4D70223AE67076FF0DFFBB4
S21400B51C938A1A00938444056FF05FEFB747444450
S21400B52C3707B2FF938747443706B2FF2326F71038
S21400B53C9305862793070A0013078624832607009D
S21400B54C1307470093B61600B3F7D700E318B7FEF9
S21400B55CE38207FEB705B3FF13858527938607009E
S21400B56C1387852403260700130747001336160097
S21400B57CB3F6C600E318A7FEE38206FE3707B2FF53
S21400B58C8327072483264724B3E7D700E39A07FECE
S21400B59C3707B3FF8327072483264724B3E7D70050
S21400B5ACE39A07FE8320C10303248103832441030B
S21400B5BC032901038329C102032A8102832A41023B
S21400B5CC032B0102832BC101032C8101832C410127
S21400B5DC13010104678000008357E500130101FB8B
S21400B5EC23248104232A51032326110423229104A5
S21400B5FC23202105232E3103232C4103232861030A
S21400B60C2326710323248103232291032320A103E1
S21400B61C232EB10193F787031307000213040500CA
S21400B62C938A05006394E7148357C50013F707F055
S21400B63C630E071293F7F70F6390071483A70500A2
S21400B64C83A6450013870702B337F700B387D700E6
S21400B65C23A0E50023A2F500930C0001130B800039
S21400B66C930410009394340037790200B719B2FF94
S21400B67C370A0100B384640137FD0000130909CAB8
S21400B68C938989C2130AFAFF83A50A0003A64A0007
S21400B69C0345AD42930730001307000293060900DA
S21400B6ACEFE09F828347AD423707B2FF93970701BF
S21400B6BC1307C724B387E70003A70700E31E07FE9C
S21400B6CC130C0B00930B0000930DF000B3089B01BA
S21400B6DC63CA8D1B63501C158357C400B3D78741B0
S21400B6EC93F71700638007129307F00113D72B40CC
S21400B6FC63D6770113870BFE135727408356E40057
S21400B70C93973B001317070113F3F7011306000179
S21400B71C93F786031357070113050A00638AC700BD
S21400B72C130680001305F00F6384C7001305F0FFA3
S21400B73C13172700B305270103A605003318650069
S21400B74C13F77600930710003376C800335666005E
S21400B75C631CF7028327040103274401B307F60092
S21400B76C63ECE702B387E7406FF09FFF930C000192
S21400B77C130B00006FF0DFEE930C8000130B000031
S21400B78C930420006FF01FEE930720006318F70851
S21400B79C83270401B307F60083A605001347F8FFBA
S21400B7ACB377F500B39767003377D70023A0E5008F
S21400B7BC03A70500B3E7E70023A0F5000345AD4259
S21400B7CC93170501B387370103A70700E31E07FE8F
S21400B7DC03A60A0083A74A003386CB0093D6FB4108
S21400B7EC33337601B386F600130800009307100077
S21400B7FC13074000B306D30023261101EFE08FEEAB
S21400B80C8328C1008327C40093D7370193F77700AA
S21400B81CB38BFB00130C1C006FF09FEB93073000F0
S21400B82C6316F700832704016FF01FF79307400099
S21400B83C631AF7000327040183274401B307F700B4
S21400B84C6FF09FF59306500093070000E316D7F4AD
S21400B85C032E440113070000930E1000130600027B
S21400B86CB396EE00B3F6C601638806008326040181
S21400B87CB396E600B387D70013071700E312C7FE8C
S21400B88C6FF09FF183A70A0083A64A00138707026E
S21400B89CB337F700B387D70023A0EA0023A2FA0039
S21400B8AC130B8B00E3129BDE8320C104032481045C
S21400B8BC83244104032901048329C103032A810339
S21400B8CC832A4103032B0103832BC102032C810221
S21400B8DC832C4102032D0102832DC10113010105A6
S21400B8EC67800000B7F7000083A70742130101E743
S21400B8FC13F7F70123248117B7F70000034C050054
S21400B90C9387074423261118232481182322911881
S21400B91C23202119232E3117232C4117232A5117A4
S21400B92C2328611723267117232291172320A1178A
S21400B93C232EB1152322A100B387E70063040C1A4B
S21400B94C83A8070003D5470023281103231AA10256
S21400B95C83A6470093D6060113F8F60383566103B5
S21400B96C93F606FCB3E60601231BD10203A7470099
S21400B97C13180801135767011373F70337F7FFFF04
S21400B98C1307F7031316630033F7E6003367C70095
S21400B99C231BE10283A647001317470193D6C60163
S21400B9AC9396C600135747013367D700231BE10253
S21400B9BC03C9870083CA970003CBA70003D7C70029
S21400B9CC230C2103231EE10283A6C700A30C5103FC
S21400B9DC93D6060113F776008356E103230D610315
S21400B9EC93F686FFB3E6E600231FD10203A7C70033
S21400B9FC33650501135707011376870313F776FC97
S21400BA0C3367C700231FE10283A60701137777006D
S21400BA1C2320D10483A6470103A687012322D10441
S21400BA2C9376160003568104131363011376E6FF10
S21400BA3C3366D6002314C10483A687011307D7FFE9
S21400BA4C13FEE607937616F8B3E6C6012314D10464
S21400BA5C03A6870137EEFFFF135676001376F60320
S21400BA6C130EFE0713167600B3F6C601B3E6C60031
S21400BA7C2314D10483D7A701336565001317070178
S21400BA8C2315F10413190901232011032322A10203
S21400BA9C135707019307200013590901E3E4E70045
S21400BAAC83A70500E38007008320C11803248118B0
S21400BABC83244118032901188329C117032A8117E7
S21400BACC832A4117032B0117832BC116032C8116CF
S21400BADC832C4116032D0116832DC1151301011954
S21400BAEC6780000003A6070083A647002320C10238
S21400BAFC232AD10203C9870083CA970003CBA70069
S21400BB0C03C7B70003A5C700230C2103232EA102ED
S21400BB1C03A50701131909012320A10403A5470156
S21400BB2C2328C1022322A10403A5870183A7C701EA
S21400BB3CA30C5103230D6103A30DE1022324A104DE
S21400BB4C2326F1042322D102135909016316077622
S21400BB5C930710002324F100130C10009307100019
S21400BB6CB7F9000063FC2707832501020326410270
S21400BB7C03C5A94293170601032641020328410276
S21400BB8C135606011358680193D707011376F6036C
S21400BB9C1378F8036302051237F700000347774162
S21400BBAC1307F7FF3308074137F7000003476741D1
S21400BBBC1318A8001307F7FF3306C74013164600E2
S21400BBCC33E6C700B7060200930730001317390098
S21400BBDC9386064A33660601EFE00FAF63020C0E3F
S21400BBECB777020023A007CA23A207CA23A407CA52
S21400BBFC23A607CA23A807CAB777020023AA07CA30
S21400BC0C23AC07CA23AE07CA130609009305000027
S21400BC1C130501059760BFFFE780C095B747000086
S21400BC2C93871700B387FA009397070193D70701FA
S21400BC3C2328F10093871A00232AF100EFD09FCE19
S21400BC4C83C7A9423707B2FF939707011307C72488
S21400BC5C3387E70083260700E39E06FE3707B2FF0E
S21400BC6C13070724B387E70003A70700E31E07FEA6
S21400BC7C130A0105930C0000130D100063C22C0967
S21400BC8CE30E0DFA83C7A9423707B2FF9397070155
S21400BC9C1307C7243387E70083260700E39E06FEB8
S21400BCAC3707B2FF13070724B387E70003A707007D
S21400BCBCE31E07FE6FF05FDF1318A8006FF01FF08F
S21400BCCC8327410083C70700E39807F20327C103C5
S21400BCDCB7770200938707C823A0E702032701045F
S21400BCEC23A2E7020327410423A4E70203278104C7
S21400BCFC23A6E7020327C10423A8E7026FF0DFEFB1
S21400BD0C03470A0093074000630CF7008327810063
S21400BD1C638E0700638C0C00834701052300FA0032
S21400BD2C938C1C00130A1A006FF05FF59307100033
S21400BD3C63F42713B70702009387074A93953C00D2
S21400BD4CB385F50003A6050083A6450013950601EA
S21400BD5C83A6450083A745001355050193D6060117
S21400BD6C93F6F60303C8A94293D7670193F7F70334
S21400BD7C63060810B7F5000083C575419385F5FF7B
S21400BD8CB387F540B7F5000083C565419397A700C8
S21400BD9C9385F5FFB386D54093964600B3E6F6003A
S21400BDACB3E6A6002324C1022326D10263020C109C
S21400BDBC832701048325C1036316080C9397A700F9
S21400BDCC1394450083244104B78503009385856846
S21400BDDCB384B400939454003364F40093070006C1
S21400BDECB7180200B387FC02938808CA2326F10012
S21400BDFCB38B17019377D70F639C0712B707D01135
S21400BE0C3707B2FF938717002326F71003C5A942FE
S21400BE1C3717B2FF93170501130787C2B387E700DE
S21400BE2C03A70700E31E07FE930730001307000264
S21400BE3C93860B009385040013060400EFE08F80B6
S21400BE4C03470A00930720006310F70E9307300091
S21400BE5C2300FA006F00C03A032601028326410233
S21400BE6C13950601832641021355050193D6060148
S21400BE7C8327410293F6F6036FF0DFEE9397A70045
S21400BE8C6FF09FF137F500000344754137F500005D
S21400BE9C3304F4401304F4FF9317A40003446541E1
S21400BEAC3304B4401304F4FF131444006FF09FF1F2
S21400BEBC8327410083C707006382070683578104E4
S21400BECC93F71700638C07048325810413D475003D
S21400BEDC1375F40313D415009375F403631A080052
S21400BEEC9317A500139445008354A1046FF0DFED5F
S21400BEFCB7F7000083C777419387F7FF3384A740D3
S21400BF0C37F500009317A400034465411304F4FFAF
S21400BF1C3304B440131444006FF01FFD9304060062
S21400BF2C138406006FF09FEB930710006FF05FF220
S21400BF3C93051000631AB72CB707D0119387270008
S21400BF4CB705B2FF23A6F51083D74B0163786701BC
S21400BF5C6396FA2A9307FBFF639EFA288327410011
S21400BF6C83C7070063820708930581021305010344
S21400BF7CEFF08FE683278100639207169307100075
S21400BF8C63F067079307FBFF6396FA26B747000034
S21400BF9C239AFB02239AFB0003C5A9423717B2FF6C
S21400BFAC93170501130787C2B387E70003A707009B
S21400BFBCE31E07FE13864401B3369600B38686004E
S21400BFCCB71502000324C100938545CD1308000065
S21400BFDC9307100013072000B305B400EFD09FF0B2
S21400BFEC930720006FF0DFE663180C000347B103DD
S21400BFFC9307F00F631EF70203C5A9423717B2FF6B
S21400C00C93170501130787C2B387E70003A707003A
S21400C01CE31E07FEB7750200130800009307100016
S21400C02C13070002938505CAEFD0DFEB6FF09FF481
S21400C03C371EB2FFB77E0200130D0000930D0000F2
S21400C04C13030000130E8EC2938E0ECA130F00023B
S21400C05C8347B103B3D7674093F71700638007068F
S21400C06C03C5A94293170501B387C70103A70700A9
S21400C07CE31E07FE032681028326C1023306CD008B
S21400C08CB335A601B386DD0093071000B386D50042
S21400C09C13080000B305DD0113074000232C6100D4
S21400C0ACEFD05FE4B717B2FF138E87C2032381016C
S21400C0BCB7770200130F0002938E07CA93074D0042
S21400C0CC33B7A70113031300138D0700B30DB70185
S21400C0DCE390E7F9E39E0DF66FF0DFE993071000A7
S21400C0EC63FA270FB70702009387074A232CF10041
S21400C0FCB70701009387F7FF371DB2FF930D1000AB
S21400C10C232EF100130D8DC203C5A94263D42D0D49
S21400C11C8327810193953D00B385F50003A60500A2
S21400C12C83A745000327C10133F7E70083A7450023
S21400C13C83A6450093D7070193D6660193F7F703BA
S21400C14C93F6F60363060506B7F5000083C575413E
S21400C15C9385F5FFB386D540B7F5000083C56541DA
S21400C16C9396A6009385F5FFB387F5409397470003
S21400C17CB367F700B3E6D700931705012324C10273
S21400C18C2326D102B387A70103A70700E31E07FEE9
S21400C19C8327410083C7070063800702930581024B
S21400C1AC13050103EFF04FC3938D1D006FF0DFF501
S21400C1BC9396A6006FF09FFBB7750200130800005D
S21400C1CC9307100013070002938505CAEFD09FD182
S21400C1DC6FF09FFD83C7A9423707B2FF93970701FD
S21400C1EC13070724B387E70003A70700E31E07FE21
S21400C1FC6FF0DFD8832741016FF09FD923000A0028
S21400C20C130D00006FF0DFB193073000E31AF7B0A0
S21400C21CB707D0113707B2FF938737002326F710DE
S21400C22C03D74B0163F46507B7470000B387FA00E2
S21400C23CE318F7DA9307FBFF639EFA04239A0B02C4
S21400C24C239A0B0003C5A9423717B2FF93170501B3
S21400C25C130787C2B387E70003A70700E31E07FE92
S21400C26C13864401B3369600B3868600B7150200D3
S21400C27C0324C100938545CD1308000093071000D6
S21400C28C13072000B305B400EFD0DFC593074000BA
S21400C29C6FF0DFA883270101239AFB02239AFB0089
S21400C2AC6FF05FFA83578104130C000093F71700A6
S21400C2BC2324F1006FF09F8A83A70500639607FE80
S21400C2CC232401006FF09F89130101FE032EC50580
S21400C2DC232E8100232C9100232A210123283101AF
S21400C2EC232641012324510123226101834F4E084A
S21400C2FC03230102832341029302100063840F0080
S21400C30C93820F00B71EB2FF03AE8EC2E31E0EFE64
S21400C31C9396D60093E62609370EB2FF832E8E022E
S21400C32CE39E0EFE232EDE002320EE0223280E01B3
S21400C33C232C0E0063800F02370EB2FF832E8E4224
S21400C34CE39E0EFE232EDE402320EE4223280E41D3
S21400C35C232C0E40130400003708B2FF130F1000F6
S21400C36C637AC41E8329450183AE080083C4450046
S21400C37C83A685010329880293F48400338EF60085
S21400C38C63940400130E0E02B38ED90163940F0649
S21400C39C0329880293048802E31C09FE2320D80193
S21400C3AC2326C80123A0E401032EC50583A4080098
S21400C3BC034E5E08832E0501331EC701330E9E0006
S21400C3CC6364DE01330EDE4123A0C801035E650400
S21400C3DC835E4504130E1E002313C505630ADE0791
S21400C3ECB306D70063F2661023ACD5001304140012
S21400C3FC6FF01FF7832A050293040000B3095E0151
S21400C40C330AD701631E0902032988422320D80168
S21400C41C2326C8012324E803338E5901B30EEA0001
S21400C42C6314090203298802232048412326384135
S21400C43C2324E84393841400E39292FC6FF0DFF617
S21400C44C032988026FF01FFC032988426FF05FFDFA
S21400C45C035EA504835E8504130E1E0023130504D9
S21400C46C2315C505832645036314DE09035EE50420
S21400C47C835EC504130E1E00231505042317C5057D
S21400C48C832685036310DE09035E2505835E05059A
S21400C49C130E1E00231705042319C5058326C50392
S21400C4AC631ADE0903AE0501231905048326050469
S21400C4BC930E1E00032E450523A8D501330EDE4130
S21400C4CC133E1E002380C301032E8502B386C601CD
S21400C4DC63FE6604232AD502232CD502232ED5020E
S21400C4EC2320D5046FF05FF0B38666406FF0DFEF65
S21400C4FC032E4502B386C60163F26602232AD502D2
S21400C50C6FF09FEE032EC502B386C60163FC660071
S21400C51C232AD502232CD5026FF01FEDB386664076
S21400C52C6FF0DFFDB38666406FF09FFEB386664005
S21400C53C6FF05FFA032E0503B386C60163E466004C
S21400C54CB3866640232AD502232CD502232ED50289
S21400C55C6FF09FE90324C101832481010329410163
S21400C56C83290101032AC100832A8100032B410081
S21400C57C1301010267800000130101ED23229112C2
S21400C58C232611122324811223202113232E31114A
S21400C59C232C4111232A51112328611123267111B2
S21400C5AC23248111232291112320A111232EB10FB4
S21400C5BC9384060063140504B707001093872700BE
S21400C5CC138405003707B2FF2326F71093050600E1
S21400C5DC130504002328C1029740BFFFE780002BF9
S21400C5ECB707020003A6C749630A060083250103A2
S21400C5FC130504009740BFFFE780802F3709020021
S21400C60CA3070908835789301304090863940700A5
S21400C61C6F20102B9385040013050000EFD04FA954
S21400C62CEFD09FA083280908371601009307064C05
S21400C63CB70601001387064C9386064C130707F2C1
S21400C64C1306064C37081000930500001303100061
S21400C65C371E000023A017A1032544002328D1026F
S21400C66CB70601009386063E232ED10683260103C9
S21400C67C2328C108130808B4930E2000138F06C491
S21400C68C938F06CC23A2A7A093070700638EB8103F
S21400C69C13874501131727003307E40003264700CA
S21400C6ACA380070003570600832686002391E70025
S21400C6BC23A4D7008326860523A8D7008322C60387
S21400C6CC9306100093F20201639402028322C603BF
S21400C6DC93F20204639E02008322C603B3F2C201E5
S21400C6EC639802008326C60393D6B60093F616000C
S21400C6FC238DD700239607002397070023AA07004D
S21400C70C83426600B30607019396C600A382070011
S21400C71C23A6070223A807029383C60093F0F20F02
S21400C72C93F272006390D203034776003307070137
S21400C73C1317C7001307470023AAE70223AC770298
S21400C74C6F00C00393F24000638C0204034696030A
S21400C75C131727003387EF00A382670023ACE7028A
S21400C76C03A7C60023A8E70203A786011316260014
S21400C77C3306CF0023AAC70223A6E7022380B700FE
S21400C78C23820700A38D07009386070413870700F0
S21400C79C23AED6FE93851500938706006FF01FEF29
S21400C7AC138706016FF05FF98327C107B7160100E0
S21400C7BC232EF7029386069E83270103232AD1088D
S21400C7CC8326010313870752B708020037061000AA
S21400C7DC130800009307070093880808130E100030
S21400C7EC130606B4938E06D4138F06DC930F000440
S21400C7FC630E05171307C802131727003387E800C4
S21400C80C03274700A3820700130310008355070075
S21400C81C8326C7032393B70093F60601639C060092
S21400C82C8326C70393F60604639606000343870322
S21400C83C33336000238B67008356C701239AD700D7
S21400C84C834667002380070093F2F60F93F6760074
S21400C85C6396C603B386C5009396C60093864600B9
S21400C86C23A4D70283467700B386C6009396C600E9
S21400C87C9386C60023A6D7026F00C00293F642002A
S21400C88C6386060C93962500B386DE0023A4D70297
S21400C89C834697032380C70193962600B306DF00D2
S21400C8AC23A6D7028356A70323A4070023A60700B4
S21400C8BC239907002398D70093060000938246041A
S21400C8CC93922200B382580083A2420083D20200C5
S21400C8DC6398B2082382D7008356C70893050000D6
S21400C8ECA38BD70093821600B306B70083C606093F
S21400C8FCB383B700238CD300631803026386050248
S21400C90C9386460493962600B386D80083A64600E4
S21400C91C83D60600B386C6009396C60023A00600F0
S21400C92C8353C70123A2760093851500E3EE55FAD0
S21400C93CA3800701938647031387070023AED6FE12
S21400C94C13081800938706006FF09FEAB386C5009D
S21400C95C9396C6009382460023A457026FF09FF16D
S21400C96C93861600E39CF6F56FF01FF783274109B4
S21400C97C370410002328F702930710002326F10C27
S21400C98C2328F10C83270103232C0104938707C467
S21400C99C93D747002320F10A83270103130404B41A
S21400C9AC938707D493D747002322F10AB7F70000E2
S21400C9BC9387074C2320F104B707020093870708D8
S21400C9CC83C7E70063860706832701031307000067
S21400C9DC83A647C19387879C638CE60003A68701D2
S21400C9EC6310060413071700938747056FF0DFFEE6
S21400C9FC93061000832701031307000003A687C1C4
S21400CA0C83270104938787726300E60283A5870158
S21400CA1C6390050213071700938707066FF0DFFE77
S21400CA2C930600006FF01FFD638406006F20805392
S21400CA3C8327810593871700232CF1040327810590
S21400CA4C9307100363F6E700EFC0DFED232C010419
S21400CA5CB717111193871711B704B2FF23A6F4105A
S21400CA6C1305010DEFD0CF8EB707020003D7A73002
S21400CA7CB70801000329C10793870708130D100098
S21400CA8C1308000013060000930D00009388F8FFAF
S21400CA9C370EFFFF370700C023A6E4100327010953
S21400CAAC032707A06376E82E835429000327890002
S21400CABCB38484009394C40083A6C40803A38400A0
S21400CACC130909046302072C8345A9FD639E052AF6
S21400CADC93F64600130D00006388062A337C130178
S21400CAEC63040C2A834A09FC832589FF939A2A003F
S21400CAFCB38A570103A54A0503AA050083A9840631
S21400CB0C8356E9FC834559FC131A0A01032D49FF89
S21400CB1C835BC9FC135A0A01832C0502B38999411D
S21400CB2CB38936019399090193D9090163860524C3
S21400CB3C832E0D0063FE3E0F83A54A05B389D941AB
S21400CB4C130B000003A5C50093850900638E050032
S21400CB5C13FF150063040F00330BAB0093D51500C1
S21400CB6C131515006FF09FFE83A5041063FA65017C
S21400CB7C03A54A05138B05008329C500B3D93503D5
S21400CB8C63080B0A0325C9FE832509FF13060B0051
S21400CB9C2328D1052326D104232461042322E1046F
S21400CBAC232E0103232CB102232AA1029740BFFF98
S21400CBBCE7804083832E010533066041B389D90193
S21400CBCC131666009399090123A4C40893D9090186
S21400CBDC23203D0103A6C40103254103B707020029
S21400CBECB708010033056501832581030328C103BB
S21400CBFC03274104032381048326C1049387070873
S21400CC0C9388F8FF370EFFFF6364C5003305C540F5
S21400CC1C2326A9FE03A60401B385650163E4C500BB
S21400CC2CB385C5402328B9FE130610006F0080009C
S21400CC3CE30C0AFE330A7A41131A0A01135A0A0144
S21400CC4C63764C01131A0301135A0A01130D0000E4
S21400CC5C630C0A1203A54A0583A5840283AE8406D8
S21400CC6C032309FD93F50502638A05088325050150
S21400CC7C13050040B38E9E413305B54013151500C1
S21400CC8C63EEAE0683AE040A23A0040A03A5440290
S21400CC9CE31E05FE63840E002302D9FD83AFC40990
S21400CCAC83AE8404034F49FC63940F00639AD50D3E
S21400CCBC83AE040763960E0C83AF040283A584062A
S21400CCCC83AE840423A4940733859F41B385D50192
S21400CCDCB382DC01B385950123A05402B385F541DC
S21400CCEC3305D54123A4B40623A0E40BB386A600D3
S21400CCFC2317D9FC231C09FC230209FCB306434169
S21400CD0C6316430183A64A0583A68605232A49FD96
S21400CD1C330C4C41B38B4B01330A47412328D9FCC7
S21400CD2C232449FD03A78400939B0B0193DB0B0183
S21400CD3C231679FD3377C7013367870123A4E400F4
S21400CD4C03A78402B7160000938D1D003377D70017
S21400CD5C631A070003A78402130D0000137707203D
S21400CD6C63140702130D000063100C02231779FDE1
S21400CD7C231C09FC6F00400123203D016FF09FEB44
S21400CD8C130D0000E3F265F6130818006FF01FD1C0
S21400CD9C630C06008325410A0325010A130680004E
S21400CDAC9730BFFFE7800064B707B2FF370700D0A5
S21400CDBCB71A00000329C10723A6E710938AFAFFC7
S21400CDCC638A0D080329C903032A4901E30A0AFEEC
S21400CDDC83572900B38787009397C70003A7C70814
S21400CDEC13774700E30E07FC83A94702938B470291
S21400CDFCE39C09FE83A4070993D4C400B3F454013E
S21400CE0C63549A0093040A00E38C04FA034BB901AA
S21400CE1C63120B0293971400B307F040B3049A40C6
S21400CE2C23A0FB00232A990093B41400B38D9D40D5
S21400CE3C6FF01FF9B307390103C5C7019730BFFF61
S21400CE4CE780C04DE30E05F693891900E3E469FF0D
S21400CE5C6FF05FFCB707B2FF370700E023A6E710BA
S21400CE6CB709020083244109232C0102938909087F
S21400CE7C832701090327810383A747A06376F768F6
S21400CE8C83C76401938444036398076683D724FDA1
S21400CE9CB78AFFFF2322F10483C704FD03AB84FF8C
S21400CEAC232EF10283A744FF03C934FE2324F10486
S21400CEBC03AA44FD9387FAFF930D0000232AF10280
S21400CECC930C190063F29D1763940D006F20001EDF
S21400CEDCB387B40103CC47FE938CFDFF93074C0439
S21400CEEC93972700B387F90083A7470083DB0700D7
S21400CEFCB3878B009397C70083A74700378700003C
S21400CF0C33F7E700630E070C03274103B3FAE70079
S21400CF1C63880A0C832701041307C0003307EC024E
S21400CF2C3387E7000357670013850B0093174701F9
S21400CF3C63D0070A9730BFFFE78040149730BFFFD7
S21400CF4CE7800010330585001315C500032D050179
S21400CF5C13850B009730BFFFE78040129730BFFF5A
S21400CF6CE780000E330585001315C5000327C500A2
S21400CF7C93160D0193D60601130D00001317070127
S21400CF8C13570701639EE6041307F0FF639EEC0439
S21400CF9C03A784FD130C4C04131C2C00338C890142
S21400CFAC83264C001307170083A646036368D70630
S21400CFBC9306F0FF6392DC04136A1A00239054FF66
S21400CFCC23ACE4FC23AA44FD130D00006F004001C3
S21400CFDC9730BFFFE780003A130D0500E31605FAFD
S21400CFEC938D1D006FF0DFED33878B001317C70092
S21400CFFC032707006FF01FFA938C1C009306100093
S21400D00CB39C9601336A9A01B38B8B00939BCB002F
S21400D01C23A25B0123A0EB006FF0DFFA9306F0FF70
S21400D02CE394DCFE6FF09FF993071000B39797011B
S21400D03C9387F7FF639247158327C10313060000F7
S21400D04C930510006F00C000B387C40083C747FE6B
S21400D05C9387470493972700B387F90083A7470065
S21400D06C83D6E70863F8D50203A5870403A747050C
S21400D07C13071700636EA70003A70705130717000F
S21400D08C6364D7003307D74023A8E70413070000D0
S21400D09C23AAE70413061600E36896FB83270B0007
S21400D0AC03D704FEB307F7009397070193D707013E
S21400D0BC2320FB0083C7C4FC638C070883C7D4FCFF
S21400D0CC9387C70293972700B387F90083A6470078
S21400D0DC83C7960303A6C60093060000630E0700DC
S21400D0EC9375170063840500B386C60013571700A4
S21400D0FC131616006FF09FFEB38787009397C70032
S21400D10C93878708939666003707B9FF83254700F1
S21400D11CE39E05FE232EF7002322D7049307400038
S21400D12C2322F7008327010313061000938507DCE0
S21400D13CB305BB4093F5F507938707CCB385B700CB
S21400D14C93D5450013554B009730BFFFE7808029D9
S21400D15C83D7E4FD03D7C4FD9387170063E4E70089
S21400D16CB387E740239FF4FC23AC04FC631209123C
S21400D17C23AA04FC130A000093771A0093C717001F
S21400D18C130C00002326F10463140C006F1090702F
S21400D19CB387840183CB47FE93874B049397270072
S21400D1ACB387F90083A7470003D507009307FCFF56
S21400D1BC232AF102B30785009397C70083AA47007A
S21400D1CCB7870000B3F7FA0063880700B787FFFF3E
S21400D1DC9387F7FFB3F7FA00832641031307F0FF94
S21400D1EC6394E60E0327C1046306072E6394072E8A
S21400D1FC330985001319C9000326C9088326493A42
S21400D20C13070000137616006306060013D71601E4
S21400D21C13371700032601049306C000B386DB02FF
S21400D22CB306D600630E071203AE8600630A0E1210
S21400D23C939E2B00B38E3E0103A74E11130EFEFFDA
S21400D24C23A4C60183C8260003D3E4FD032F87025C
S21400D25C83234702032D0909832FC70463920F0803
S21400D26C93800300130800009305000013060000CB
S21400D27C93020F006308030A937D130063840D006A
S21400D28C3306560013531300939212006FF09FFE52
S21400D29C1307000013071700B387E40083C747FE85
S21400D2AC9387470493972700B387F90083A7470013
S21400D2BC83D70700B38787009397C70023A0070080
S21400D2CCE36A27FD6FF0DFEA032741031307170015
S21400D2DC3357EA0013771700134717006FF0DFF089
S21400D2EC032807050326C7049318480033061601BF
S21400D2FC832506000326C7049392350033061601D1
S21400D30C0326C60033065600832006000326C704F1
S21400D31C330616010326C60033065600832846003D
S21400D32C6FF0DFF4232209023306160063040D00A7
S21400D33C638C0F102328C902939888013736000097
S21400D34C23281909130606202324C90263940F12F6
S21400D35C130D000063160E0003A74E1123280702B8
S21400D36C0326C9081307000013764600630A060056
S21400D37C0327C9021357F700130717FE3337E000CD
S21400D38C03268104832D060003260B00B38DCD40A7
S21400D39C939D0D0193DD0D01638C0D1263EA5D13F5
S21400D3AC130D000063080712032709090326C90199
S21400D3BC83C5C4FC6386050E13874B04131727001E
S21400D3CC3387E9000327470063840A00938D0A001D
S21400D3DC0326C70013870D0093751700638405009A
S21400D3ECB387C7001357170013161600E31607FE6D
S21400D3FC03D766009316470163DC060A9730BFFF17
S21400D40CE780C0C79730BFFFE78080C33305850031
S21400D41C1315C50083270501B38DB701939D0D0128
S21400D42C93DD0D012328B501032741039307F0FF75
S21400D43C6318F708B787FFFFB3EAFA00239054FF88
S21400D44C130D00006F00000983200903B3807040A1
S21400D45C63E6E001B380E0416FF09FFFB300160077
S21400D46C2328190203278902136707202324E902BD
S21400D47C6FF01FEE0326C70413184800938515009B
S21400D48C330606010326460063E4C5009305000038
S21400D49C0327C704330807012320B8006FF05FEB9F
S21400D4AC13178700935D4701930706006FF05FF430
S21400D4BC9397C700B3EDB701232CB9076FF0DFF6CF
S21400D4CCB7870000B3EAFA00232259016FF05FF722
S21400D4DCE31807F69307C000B38BFB0283270104FF
S21400D4ECB38B770183A78B0063840700130D0000B2
S21400D4FC130C1C00E36A9CC98327810393871700CF
S21400D50C232CF1026FF0DF96B70702002387A709DA
S21400D51C3707B2FFB70600F02326D71083A74700BD
S21400D52C638007020327C10C9376F70363FAF600B1
S21400D53C93F7F703137707FCB3E7E7002326F10C02
S21400D54C8327C10C13F7F7039306170093F707FC12
S21400D55CB3E7D7002326F10C63120702B707B2FF16
S21400D56C370700C023A6E7109305C10E1305810EDE
S21400D57C2304010E9730BFFFE780C0F28327010318
S21400D58C23240104138D07A0B787FFFF9387F7FFAB
S21400D59C2326F10693078DFC2322F104832701032F
S21400D5AC0327810483A747C1E378F72083478DFDC3
S21400D5BC83448DFC232AF1028325410483270DFE28
S21400D5CC83290D019306C10D1306810D13850400E6
S21400D5DC232AF10C9730BFFFE78040B283C759006F
S21400D5EC6388070083C7490093F787006396070E86
S21400D5FC8357CDFC13091000232CF1028347ADFC96
S21400D60C232EF1028347BDFC639E0700B38784007C
S21400D61C9397C70003A987021359C9001349190029
S21400D62C1379190083274103A3052DFD6382070890
S21400D63C8327810D638E07068327C10D639A070621
S21400D64C8327810363960706138504009730BFFF74
S21400D65CE780C0A29730BFFFE780809E3305850029
S21400D66C1315C500032A0501138504009730BFFF68
S21400D67CE780C0A09730BFFFE780809C330585000D
S21400D68C1315C5008327C500131A0A01135A0A017D
S21400D69C9397070193D70701631CFA00B38784009E
S21400D6AC9397C7001307100023AEE706232C010C34
S21400D6BC8327410D63840724631E09028327810D8B
S21400D6CC639407006F1050198327C10D63900702EF
S21400D6DC832781036394076083278104130D4D050C
S21400D6EC938717002324F1046FF0DFEA8327C10326
S21400D6FCE39007FE83AA0900B70700D1B3E7F4004E
S21400D70CB706B2FF23A6F6100326CDFF83A78A031F
S21400D71C6308060203479DFC9386C6201317070171
S21400D72C3307D7000327070093D757009306E02E3E
S21400D73C3307C74063E6D700938727D16360F71C8F
S21400D74CB707B2FF370720D123A6E710832741037C
S21400D75C6382071C83278D011385040083A7870823
S21400D76C03DB870083CBB7019730BFFFE7800091C0
S21400D77C9730BFFFE780C08C330585001315C500B6
S21400D78C032A0501138504009730BFFFE780008F3E
S21400D79C9730BFFFE780C08A330585001315C50098
S21400D7AC8327C500B307FA409397070193D7070161
S21400D7BC63140B0063840B006392071403258D011E
S21400D7CC03D7CA038326050113060000930507003A
S21400D7DCB387F6408356CDFC638E060013F816000E
S21400D7EC630408003306B60093D61600939515000E
S21400D7FC6FF09FFE832605023307C70063E0E71031
S21400D80CB707B2FF370700D2B38D840023A6E71004
S21400D81C939DCD0083A74D0013D70701630A07001D
S21400D82C9397070193D7070123A2FD00232A0DFC2B
S21400D83C8357CDFC130710002326F1048347BDFC49
S21400D84C2328E104032BC10D832BCDFD639C07001D
S21400D85C83A78D0293D7C70093C7170093F71700BB
S21400D86C2328F10403A70900035AEDFC832787033A
S21400D87C03238705232EF10463100A1293850900EF
S21400D88C130AF0FF8346E70393071000639E060413
S21400D89C83D6A50003D565008327C10603D6C5002D
S21400D8ACB3F6F60063E4A60C3386A6400358A7002E
S21400D8BC63744601130A060003C645001376160069
S21400D8CC630406006F10007B0357070093070000E5
S21400D8DC638CE6006364D7006F1080786366E5009F
S21400D8EC6374D5006F10007983A5050203A70500A5
S21400D8FC6386B908E39807F863040A08E31A09DC98
S21400D90C8327C103E39607DC8327810DE39207DCAC
S21400D91C6FF09FDC83A68A038327CDFD13070D00CB
S21400D92C1306F00FB386F600B38784009397C700F0
S21400D93C83A7070793974700B3B7D70093C717007B
S21400D94CE38E07FA8347070013071700E38AC7EA34
S21400D95CB38787009397C70083A70707939747005B
S21400D96CB3B7D70093C717006FF09FFD13161600BA
S21400D97C3306D6003306A6406FF05FF3631C0A002E
S21400D98C032AC10C137A0AFC63060A002326010C30
S21400D99C130A0000E38407F6B707B2FFB70600D3F6
S21400D9AC23A6D71083A6CD0183274DFDB387FB0096
S21400D9BC9396460063E4D700B387D74083268D0141
S21400D9CC83AA860883228704832FC704035CC703B5
S21400D9DC832607052320D10683260704232AD10491
S21400D9EC83C6490093F6160063880620835C2700DE
S21400D9FC03D78A000328C30163080702330787008E
S21400DA0C1317C7000326C708832587048326C1047B
S21400DA1C1376460063060626638405260328C70489
S21400DA2C1308180013184800832643003706B2FF65
S21400DA3CB70500D40327830083A30A01930840008C
S21400DA4C2324D106832603012326B6100326C10CF5
S21400DA5C9305D000136606042326C10C03260DFD81
S21400DA6CB387C70003A6C9012320C10E03468DFF4A
S21400DA7C6304B6009308160003459DFCB705B2FF79
S21400DA8C230C1DFF9385C520131605013306B6001F
S21400DA9C83D58A0003260600232ECDFE03260DFF13
S21400DAAC6396050083C5BA01638C05148355ADFED9
S21400DABC2326C10E2322B10E8325CDFE83508DFE68
S21400DACC2324B10E03CFBA0103A6890193050000E7
S21400DADCB33EE00163040F0083A5CA0023241103A0
S21400DAEC9308810E2322110383D8AA00232AB1009F
S21400DAFC9305C10E2322B1009305010E2320B1001D
S21400DB0C232E1100930505002328710023245100B1
S21400DB1C2326F10113850E00232011039308410ED2
S21400DB2C232C11019308080013880700930707009D
S21400DB3C1387060093060C00232861069730BFFF58
S21400DB4CE780C0E88327C10E2328FDFE8327410EFD
S21400DB5C2315FDFE8327810E2326FDFE03A809014F
S21400DB6C83D78A0003230107832681061307010E39
S21400DB7C13860A009385090013054DFE232A6106B9
S21400DB8C33080C0123A80901232801079730BFFF8F
S21400DB9CE780C08A8327C1040328010793861700F1
S21400DBAC8327C10503234107B38BFB00832701059D
S21400DBBC63940700330B8B41832701066392070D92
S21400DBCC83D7690003A789010325C300130AFAFF4C
S21400DBDC23A809009305000013860C0063060606AE
S21400DBEC1378160063040800B385A50013561600B8
S21400DBFC131515006FF09FFE835C07016FF05FDF57
S21400DC0C83A589012324C10E03264DFF232411016D
S21400DC1C2326C10E1306C10E2322C1001306810E45
S21400DC2C2320C1009308010E13060C00232861065E
S21400DC3CEFB01FD58327810E2328FDFE8327C10E48
S21400DC4C232AFDFE6FF09FF1032641053307B7002C
S21400DC5C6364C7003307C740B38C970183D7C900EA
S21400DC6C9397170063E4FC00B38CFC409387090081
S21400DC7C23ACE7002393970183A70702E39AF9FEE8
S21400DC8C8327010523174DFD2316DDFC232E7DFD72
S21400DC9CE39607C683A74D003707FFFF93060D00D4
S21400DCAC9305F00FB3F7E700B3E7670123A2FD0077
S21400DCBC3706FFFF83C7060093861600E380B7C4BB
S21400DCCCB38787009397C70003A747003377C7002F
S21400DCDC3367670123A2E7006FF0DFFD832A4D014F
S21400DCECB70700E003AB0A00B3E7F4003707B2FF50
S21400DCFC2326F710834C9DFF032A4DFD9309400005
S21400DD0C83278B05832B8B0383479DFC2326F104EB
S21400DD1C9307D0006384FC0093891C000325C10480
S21400DD2C938509009720BFFFE780002D130C050094
S21400DD3C630405006F104031E300099A93890C00C8
S21400DD4C832541049306C10D1306810D138504002B
S21400DD5C9720BFFFE780803A83274103638207043E
S21400DD6C8327810D638E07028327C10D639A0702F2
S21400DD7CB38C8400939CCC0083A78C0237170000CE
S21400DD8CB3F7E7006392070E83A78C0293F707207E
S21400DD9C638C070C9307100023AEFC06232C010C97
S21400DDACE30C0C928327C103639607008327810D2F
S21400DDBCE38407928327C10DE3800792B707B2FF6F
S21400DDCC370700E123A6E710035CCB0383270B057C
S21400DDDC338B8400131BCB00835DCDFC232EF1020A
S21400DDEC83A74A012326F10E832CCB0183274103FC
S21400DDFCB337F000939C4C002328F1048327C10E04
S21400DE0C0327C103B307FC002326F10E631AF70A97
S21400DE1C9307C10E2322F100032841049307C10C7B
S21400DE2C8326C104032641032320F10093880A00AD
S21400DE3C93870B0013070C009305410D1385040004
S21400DE4C9730BFFFE78080EE631E05068327410DE3
S21400DE5CA30C3DFF232A5D012320FDFE2316BDFDEA
S21400DE6C232A4DFD6FF05F87138504009720BFFFB4
S21400DE7CE780C0209720BFFFE780801C3305850015
S21400DE8C1315C500832D0501138504009720BFFFCD
S21400DE9CE780C01E9720BFFFE780801A33058500F9
S21400DEAC1315C5008327C500939D0D0193DD0D0149
S21400DEBC9397070193D70701E394FDEE6FF09FED60
S21400DECC23AAFA00630E09048327C10DB706FFFFC9
S21400DEDC33878741232EE10C83274B001305F00F65
S21400DEECB705FFFFB3F7D700B3E7E7002322FB0025
S21400DEFC93060D0083C70600938616006382A7025E
S21400DF0CB38787009397C70003A747000326C10D66
S21400DF1C3377B7003367C70023A2E7006FF09FFD87
S21400DF2C8347ADFC639607080326010503254104C9
S21400DF3C13870B0093060C00938504009720BFFFF5
S21400DF4CE780002883278103330A7A019387F7FF3B
S21400DF5C232CF1028327CDFD938DFDFFB3877741EC
S21400DF6C232EFDFC63649A01330A9A41630609006A
S21400DF7C8327C10DE38C07EC83278103E38807EC2A
S21400DF8C9307D000930540006384F900938519002D
S21400DF9C0325C104232AB1049720BFFFE780C005E0
S21400DFAC83254105E30405EA938905006FF01FE518
S21400DFBC23050DFC6FF01FF98327010423220104AF
S21400DFCC938D8772B7070100938787BE232CF108C1
S21400DFDCB787FFFF9387F7FF232E01042320F10852
S21400DFEC832701030327C10583A787C1636EF71A2E
S21400DFFCB7140000370901009384F4FF1309F9FFE6
S21400E00C83274104639407006FE01F9B032741049A
S21400E01CB7070020B367F700832A81093707B2FFDA
S21400E02C2326F710130C000093091000370A00FF84
S21400E03C8327010383A787C1E374FCFC83DC6A0097
S21400E04C638E0C1483A7CA0583CD0A0083A78708A2
S21400E05CB38B8D00939BCB0003A7CB0803CD2A0074
S21400E06C135727001377170083C76700336DFD001F
S21400E07C137DFD0FE3000D7C13850D00232AE102B2
S21400E08C9720BFFFE78080FF9720BFFFE78040FB0D
S21400E09C330585001315C500032B050113850D00EC
S21400E0AC9720BFFFE78080FD9720BFFFE78040F9F1
S21400E0BC330585001315C5008327C50003274103C8
S21400E0CC630E070CB307FB409397070193D7070122
S21400E0DC6386070C03A74B0293864B02E31C07FED2
S21400E0EC03A70B091357C700337797006376F7001F
S21400E0FC9317070193D70701138B0C0063F4970152
S21400E10C138B0700131B0B01135B0B0163080B0827
S21400E11C83274104B38767412322F104E30C0D6285
S21400E12C13850D009720BFFFE78040F59720BFFFB3
S21400E13CE78000F1330585001315C5008327C5005D
S21400E14CB307FB009397070193D707012326F50027
S21400E15C83A78B0083C62A0033F7270183D78A0050
S21400E16C6396060083D6EA03B387D700B367F70037
S21400E17C6392070283A7CA0583A7C70393F70740D2
S21400E18C6388070083A70B09B3F7470123A8FB088E
S21400E19C23AE3B07338B6C4123936A01130C1C0094
S21400E1AC938A0A066FF0DFE883A78D012324F10615
S21400E1BC6386074683A98D05B707B2FF370700F0BD
S21400E1CC03CC0D0023A6E71083A7090003DAC703C8
S21400E1DC232EF10283A78703232AF10483A7CD05F8
S21400E1EC03A7870883A787080347A70183C7670089
S21400E1FC232AE1022322F1086316070083C72D00A9
S21400E20C63860740B707B2FF83A7072863980740C3
S21400E21CB707B3FF83A707286392074083D7CD01C0
S21400E22C0327010833F7E700232CE10203D7ED019F
S21400E23C2324E1048326810413071000636AD73E67
S21400E24CB70700F1B367FC003707B2FF33098C0041
S21400E25C2326F7101319C900832BC90883D68D0003
S21400E26C93DB2B0093F71B002320F10683278900F2
S21400E27C9397070193D707012328F1048327890274
S21400E28C93D7170093F717002326F10483C72D00A6
S21400E29C6386074E2326D1068327C1043717B2FFA1
S21400E2AC93970701130787C283C51D00B387E70042
S21400E2BCA3800D0083A7070023940D00130600000F
S21400E2CC9304100093B7170003C52D0003274108CD
S21400E2DC3365A700630405040327010663000704DF
S21400E2EC032701050328C106B36C070163980C02CB
S21400E2FC03A7CD050327C70313770740630A070058
S21400E30C03270909370800FF337707012328E90894
S21400E31C13071000232EE90623200106638206024B
S21400E32C032781062393DD003307B740832541047A
S21400E33C23ACED00B386D5002322D1046300072E50
S21400E34C03270106630C072C032701056308072C1B
S21400E35C6386072C6314062C6382042CB707B2FF63
S21400E36C370700F283CC1D0003DD8D0023A6E710D3
S21400E37C83DAAD00630E056A13050C009720BFFF09
S21400E38CE780C0CF9720BFFFE78080CB33058500A2
S21400E39C1315C500832705019397070193D707012B
S21400E3AC338757411317070113570701636847272D
S21400E3BC3707B2FFB70600F32326D71083C54900EC
S21400E3CC03D7A9008326010803D6C90093F51500C8
S21400E3DC3377D70083D66900639E0500B385C640A5
S21400E3EC930400006308B700B304C740B384D4405A
S21400E3FCB334900063E8E6643387E640636AC7008C
S21400E40C0327C10C137707FC630407002326010CB3
S21400E41C638604203707B2FFB70600F42326D7100E
S21400E42C0327C10C136707042326E10C0327C1033B
S21400E43C035767002326E106032789009356070136
S21400E44CE380064013170701135707012324E9003E
S21400E45C130700002320E10E0327C103032B8902B8
S21400E46C832B870503A7CD05032C870863800B0435
S21400E47C03A7CB012322E10603578C00630807028F
S21400E48C330787001317C7008326C708032687049D
S21400E49C93F64600E3820608E30006080327C70443
S21400E4AC13071700131747002322E10603278104DE
S21400E4BC232A910713372700134717002324E10A52
S21400E4CC0327C1062328E10663160700130710006E
S21400E4DC2328E106135B2B0113777B002320E10630
S21400E4EC0327C104138B0900931607013717B2FFD5
S21400E4FC130787C23387E6002326E10A33074D014C
S21400E50C2324E10633075A01B387E74093970701A4
S21400E51C93D70701232CF106B707B2FF0327810315
S21400E52C9387C7102326F108B787FFFFB367F7005A
S21400E53C2328F10A8327C10537078000B3E7E700D5
S21400E54C232EF1088327C108370700F523A0E70020
S21400E55C8327C10383AE070483A6870403A5C704D9
S21400E56C83C72D00230E010C6384074E9307C10D41
S21400E57C2322F10003274105938706008326010614
S21400E58C2320D101130805009308010E13060A0078
S21400E59C93050B0013850D002324D109EFD0DFD291
S21400E5AC832E8108034DC10DE3080D0C83474B00E9
S21400E5BC03280B002324F10893F78700638407666F
S21400E5CC83280803832C48030327C10693071000EF
S21400E5DC63F8E76683A7CD050327010783A787089B
S21400E5EC1307F7FF9306000003A6070083278B018B
S21400E5FC630007649375170063840500B386C60032
S21400E60C13571700131616006FF09FFE13058000A5
S21400E61C9720BFFFE78040CDE31205C08327C105D6
S21400E62C938D0D0693871700232EF1046FF05F9BD6
S21400E63C9397070193D70741E3D407C0B707B2FFF8
S21400E64C370730F023A6E7108327410363860706B7
S21400E65CB3048C009394C40003A9840283AA8D058A
S21400E66C9305300003AB0A001359190013791900EF
S21400E67C130509009720BFFFE7800098E30005FA12
S21400E68C9306C10E1306810E9305410E13050B005F
S21400E69C2324010E2326010E9720BFFFE78080A1BE
S21400E6AC631C05048327C10C93F707FCE38807F665
S21400E6BC2326010C6FF09FF683C72D00E39A07F80C
S21400E6CC03A54D0393041000630805009720BFFFB5
S21400E6DCE78080C19304050003A58D03631605002F
S21400E6ECE39804F66FF09FF39720BFFFE780C0BF58
S21400E6FCE31805FE6FF09FF28327410E0327810374
S21400E70CE312F7FA03C54A0093778500638207067F
S21400E71C83280B0383274B0303D76A008326C10E7B
S21400E72C03A884022326D1008326810E2320F10021
S21400E73C2324D1002322610183D6ED010326810315
S21400E74C13582801930709001378780093051000D6
S21400E75C137515009730BFFFE780409283A70A0217
S21400E76C23ACFD0483278103239EFD006FF05FAD71
S21400E77C83288B048327CB046FF01FFA83DCED030E
S21400E78CB387DC002326F10683274103E39607B004
S21400E79C03AD4D0363120D069305000093060000AF
S21400E7AC3727B1FFB787B4FF83A7473F8324071FDC
S21400E7BC37F70000232097400327010403A68D0398
S21400E7CC0327877693D77701B384E4400327410564
S21400E7DC93C71700135757001305A0283336C000ED
S21400E7EC93F717006374A7001307A028130767D7BF
S21400E7FCB33497006FF05FAD13050D009720BFFF85
S21400E80CE78080AEE30A05F8B3048D009394C40049
S21400E81C83A7443F3707800033F7E70063040714E9
S21400E82C370780FF1307F7FFB3F7E7001307000659
S21400E83CB387E70203278109B307F70003A7870509
S21400E84C83C70700832C0700B38787009397C700FE
S21400E85C83AA870203A887028347470093DA1A0025
S21400E86C1358280193FA1A001378780013F78700C8
S21400E87C630E071003AE0C0303AB4C0303A7443E16
S21400E88C930B0E00630E07042392EC0293F717000B
S21400E89C639607049305300013850A0023280107A6
S21400E8AC9710BFFFE780807703280107E30405FE77
S21400E8BC93864B0033B7760193080000930720002D
S21400E8CC3307670113864C029305300013850A0044
S21400E8DC9720BFFFE78080070328010723A2043E8A
S21400E8EC03A7843EB707C0FFB306F7009387F7FF6E
